{
  "_format": "hh-sol-artifact-1",
  "contractName": "TokenGraveyard",
  "sourceName": "contracts/TokenGraveyard.sol",
  "abi": [
    {
      "inputs": [
        {
          "internalType": "uint256",
          "name": "amt",
          "type": "uint256"
        }
      ],
      "stateMutability": "nonpayable",
      "type": "constructor"
    },
    {
      "anonymous": false,
      "inputs": [
        {
          "indexed": true,
          "internalType": "address",
          "name": "fromAddress",
          "type": "address"
        },
        {
          "indexed": true,
          "internalType": "address",
          "name": "burialToken",
          "type": "address"
        },
        {
          "indexed": false,
          "internalType": "string",
          "name": "message",
          "type": "string"
        }
      ],
      "name": "GraveyardEvent",
      "type": "event"
    },
    {
      "anonymous": false,
      "inputs": [
        {
          "indexed": true,
          "internalType": "address",
          "name": "previousOwner",
          "type": "address"
        },
        {
          "indexed": true,
          "internalType": "address",
          "name": "newOwner",
          "type": "address"
        }
      ],
      "name": "OwnershipTransferred",
      "type": "event"
    },
    {
      "stateMutability": "payable",
      "type": "fallback"
    },
    {
      "inputs": [],
      "name": "getCost",
      "outputs": [
        {
          "internalType": "uint256",
          "name": "amt",
          "type": "uint256"
        }
      ],
      "stateMutability": "view",
      "type": "function"
    },
    {
      "inputs": [
        {
          "internalType": "address",
          "name": "token",
          "type": "address"
        }
      ],
      "name": "getTokenExpiryInfo",
      "outputs": [
        {
          "internalType": "int256",
          "name": "responseCode",
          "type": "int256"
        },
        {
          "components": [
            {
              "internalType": "uint32",
              "name": "second",
              "type": "uint32"
            },
            {
              "internalType": "address",
              "name": "autoRenewAccount",
              "type": "address"
            },
            {
              "internalType": "uint32",
              "name": "autoRenewPeriod",
              "type": "uint32"
            }
          ],
          "internalType": "struct IHederaTokenService.Expiry",
          "name": "expiryInfo",
          "type": "tuple"
        }
      ],
      "stateMutability": "nonpayable",
      "type": "function"
    },
    {
      "inputs": [
        {
          "internalType": "address",
          "name": "token",
          "type": "address"
        },
        {
          "internalType": "uint256",
          "name": "keyType",
          "type": "uint256"
        }
      ],
      "name": "getTokenKey",
      "outputs": [
        {
          "internalType": "int64",
          "name": "responseCode",
          "type": "int64"
        },
        {
          "components": [
            {
              "internalType": "bool",
              "name": "inheritAccountKey",
              "type": "bool"
            },
            {
              "internalType": "address",
              "name": "contractId",
              "type": "address"
            },
            {
              "internalType": "bytes",
              "name": "ed25519",
              "type": "bytes"
            },
            {
              "internalType": "bytes",
              "name": "ECDSA_secp256k1",
              "type": "bytes"
            },
            {
              "internalType": "address",
              "name": "delegatableContractId",
              "type": "address"
            }
          ],
          "internalType": "struct IHederaTokenService.KeyValue",
          "name": "key",
          "type": "tuple"
        }
      ],
      "stateMutability": "nonpayable",
      "type": "function"
    },
    {
      "inputs": [
        {
          "internalType": "address",
          "name": "token",
          "type": "address"
        },
        {
          "internalType": "address",
          "name": "account",
          "type": "address"
        }
      ],
      "name": "grantTokenKyc",
      "outputs": [
        {
          "internalType": "int64",
          "name": "responseCode",
          "type": "int64"
        }
      ],
      "stateMutability": "nonpayable",
      "type": "function"
    },
    {
      "inputs": [
        {
          "internalType": "address",
          "name": "token",
          "type": "address"
        },
        {
          "internalType": "address",
          "name": "account",
          "type": "address"
        }
      ],
      "name": "isKyc",
      "outputs": [
        {
          "internalType": "int64",
          "name": "responseCode",
          "type": "int64"
        },
        {
          "internalType": "bool",
          "name": "kycGranted",
          "type": "bool"
        }
      ],
      "stateMutability": "nonpayable",
      "type": "function"
    },
    {
      "inputs": [],
      "name": "owner",
      "outputs": [
        {
          "internalType": "address",
          "name": "",
          "type": "address"
        }
      ],
      "stateMutability": "view",
      "type": "function"
    },
    {
      "inputs": [
        {
          "internalType": "address",
          "name": "token",
          "type": "address"
        }
      ],
      "name": "pauseToken",
      "outputs": [
        {
          "internalType": "int256",
          "name": "responseCode",
          "type": "int256"
        }
      ],
      "stateMutability": "nonpayable",
      "type": "function"
    },
    {
      "inputs": [],
      "name": "renounceOwnership",
      "outputs": [],
      "stateMutability": "nonpayable",
      "type": "function"
    },
    {
      "inputs": [
        {
          "internalType": "address",
          "name": "token",
          "type": "address"
        },
        {
          "internalType": "address",
          "name": "account",
          "type": "address"
        }
      ],
      "name": "revokeTokenKyc",
      "outputs": [
        {
          "internalType": "int64",
          "name": "responseCode",
          "type": "int64"
        }
      ],
      "stateMutability": "nonpayable",
      "type": "function"
    },
    {
      "inputs": [
        {
          "internalType": "address",
          "name": "tokenId",
          "type": "address"
        }
      ],
      "name": "tokenAssociate",
      "outputs": [],
      "stateMutability": "payable",
      "type": "function"
    },
    {
      "inputs": [
        {
          "internalType": "address payable",
          "name": "receiverAddress",
          "type": "address"
        },
        {
          "internalType": "uint256",
          "name": "amount",
          "type": "uint256"
        }
      ],
      "name": "transferHbar",
      "outputs": [],
      "stateMutability": "nonpayable",
      "type": "function"
    },
    {
      "inputs": [
        {
          "internalType": "address",
          "name": "newOwner",
          "type": "address"
        }
      ],
      "name": "transferOwnership",
      "outputs": [],
      "stateMutability": "nonpayable",
      "type": "function"
    },
    {
      "inputs": [
        {
          "internalType": "address",
          "name": "token",
          "type": "address"
        }
      ],
      "name": "unpauseToken",
      "outputs": [
        {
          "internalType": "int256",
          "name": "responseCode",
          "type": "int256"
        }
      ],
      "stateMutability": "nonpayable",
      "type": "function"
    },
    {
      "inputs": [
        {
          "internalType": "uint256",
          "name": "amt",
          "type": "uint256"
        }
      ],
      "name": "updateCost",
      "outputs": [],
      "stateMutability": "nonpayable",
      "type": "function"
    },
    {
      "inputs": [
        {
          "internalType": "address",
          "name": "token",
          "type": "address"
        },
        {
          "components": [
            {
              "internalType": "uint32",
              "name": "second",
              "type": "uint32"
            },
            {
              "internalType": "address",
              "name": "autoRenewAccount",
              "type": "address"
            },
            {
              "internalType": "uint32",
              "name": "autoRenewPeriod",
              "type": "uint32"
            }
          ],
          "internalType": "struct IHederaTokenService.Expiry",
          "name": "expiryInfo",
          "type": "tuple"
        }
      ],
      "name": "updateTokenExpiryInfo",
      "outputs": [
        {
          "internalType": "int256",
          "name": "responseCode",
          "type": "int256"
        }
      ],
      "stateMutability": "nonpayable",
      "type": "function"
    },
    {
      "inputs": [
        {
          "internalType": "address",
          "name": "token",
          "type": "address"
        },
        {
          "components": [
            {
              "internalType": "uint256",
              "name": "keyType",
              "type": "uint256"
            },
            {
              "components": [
                {
                  "internalType": "bool",
                  "name": "inheritAccountKey",
                  "type": "bool"
                },
                {
                  "internalType": "address",
                  "name": "contractId",
                  "type": "address"
                },
                {
                  "internalType": "bytes",
                  "name": "ed25519",
                  "type": "bytes"
                },
                {
                  "internalType": "bytes",
                  "name": "ECDSA_secp256k1",
                  "type": "bytes"
                },
                {
                  "internalType": "address",
                  "name": "delegatableContractId",
                  "type": "address"
                }
              ],
              "internalType": "struct IHederaTokenService.KeyValue",
              "name": "key",
              "type": "tuple"
            }
          ],
          "internalType": "struct IHederaTokenService.TokenKey[]",
          "name": "keys",
          "type": "tuple[]"
        }
      ],
      "name": "updateTokenKeys",
      "outputs": [
        {
          "internalType": "int64",
          "name": "responseCode",
          "type": "int64"
        }
      ],
      "stateMutability": "nonpayable",
      "type": "function"
    },
    {
      "stateMutability": "payable",
      "type": "receive"
    }
  ],
  "bytecode": "0x608060405234801561001057600080fd5b5060405161163c38038061163c83398101604081905261002f91610090565b61003833610040565b6001556100a9565b600080546001600160a01b038381166001600160a01b0319831681178455604051919092169283917f8be0079c531659141344cd1fd0a4f28419497f9722a3daafe3b4186f6b6457e09190a35050565b6000602082840312156100a257600080fd5b5051919050565b611584806100b86000396000f3fe6080604052600436106100f75760003560e01c80638da5cb5b1161008a578063bd3e19d411610059578063bd3e19d414610342578063d614cdb814610357578063f2c31ff414610385578063f2fde38b146103bf57610158565b80638da5cb5b146102ba5780638f8d7f99146102e2578063acbc682014610302578063af99c6331461032257610158565b8063593d6e82116100c6578063593d6e82146102325780636fc3cbaf14610252578063715018a6146102855780637c41ad2c1461029a57610158565b80631a2a5e151461019c57806323c5a088146101b15780633b3bff0f146101d15780633c4dd32e1461020457610158565b36610158576040513390819060008051602061152f8339815191529061014e9060208082526019908201527f4862617220526563656976656420627920436f6e747261637400000000000000604082015260600190565b60405180910390a3005b6040513390819060008051602061152f8339815191529061014e906020808252600f908201526e11985b1b189858dac810d85b1b1959608a1b604082015260600190565b6101af6101aa366004610d03565b6103df565b005b3480156101bd57600080fd5b506101af6101cc366004610d27565b6104e1565b3480156101dd57600080fd5b506101f16101ec366004610d03565b61054b565b6040519081526020015b60405180910390f35b34801561021057600080fd5b5061022461021f366004610d40565b610625565b6040516101fb929190610e32565b34801561023e57600080fd5b506101f161024d366004610f1e565b61070c565b34801561025e57600080fd5b5061027261026d366004611027565b6107e9565b60405160079190910b81526020016101fb565b34801561029157600080fd5b506101af610815565b3480156102a657600080fd5b506101f16102b5366004610d03565b610829565b3480156102c657600080fd5b506000546040516001600160a01b0390911681526020016101fb565b3480156102ee57600080fd5b506102726102fd3660046111e8565b610857565b34801561030e57600080fd5b506101af61031d366004610d40565b61088d565b34801561032e57600080fd5b5061027261033d3660046111e8565b610932565b34801561034e57600080fd5b506001546101f1565b34801561036357600080fd5b50610377610372366004610d03565b610968565b6040516101fb929190611221565b34801561039157600080fd5b506103a56103a03660046111e8565b610a77565b6040805160079390930b83529015156020830152016101fb565b3480156103cb57600080fd5b506101af6103da366004610d03565b610b42565b6001543410156104365760405162461bcd60e51b815260206004820152601c60248201527f4e65656473206d6f72652048424152202d3e20676574436f737428290000000060448201526064015b60405180910390fd5b60006104423083610bbb565b9050816001600160a01b0316336001600160a01b031660008051602061152f833981519152604051610492906020808252600a9082015269105cdcdbd8da585d195960b21b604082015260600190565b60405180910390a3601681146104dd5760405162461bcd60e51b815260206004820152601060248201526f105cdcdbd8da585d194811985a5b195960821b604482015260640161042d565b5050565b6104e9610bf1565b60018190556040513390819060008051602061152f833981519152906105409060208082526018908201527f5061796d656e7420726571756972656420757064617465640000000000000000604082015260600190565b60405180910390a350565b6040516001600160a01b03821660248201526000908190819061016790633b3bff0f60e01b906044015b60408051601f198184030181529181526020820180516001600160e01b03166001600160e01b03199094169390931790925290516105b3919061125b565b6000604051808303816000865af19150503d80600081146105f0576040519150601f19603f3d011682016040523d82523d6000602084013e6105f5565b606091505b50915091508161060657601561061a565b8080602001905181019061061a9190611289565b60030b949350505050565b600061062f610c9b565b604080516001600160a01b0386166024820152604480820186905282518083039091018152606490910182526020810180516001600160e01b0316631e26e99760e11b17905290516000918291610167916106899161125b565b6000604051808303816000865af19150503d80600081146106c6576040519150601f19603f3d011682016040523d82523d6000602084013e6106cb565b606091505b50915091506106d8610c9b565b826106e5576015816106f9565b818060200190518101906106f991906112f4565b60039190910b9890975095505050505050565b60008060006101676001600160a01b031663593d6e8260e01b86866040516024016107389291906113cf565b60408051601f198184030181529181526020820180516001600160e01b03166001600160e01b0319909416939093179092529051610776919061125b565b6000604051808303816000865af19150503d80600081146107b3576040519150601f19603f3d011682016040523d82523d6000602084013e6107b8565b606091505b5091509150816107c95760156107dd565b808060200190518101906107dd9190611289565b60030b95945050505050565b60008060006101676001600160a01b0316636fc3cbaf60e01b8686604051602401610738929190611412565b61081d610bf1565b6108276000610c4b565b565b6040516001600160a01b03821660248201526000908190819061016790631f106b4b60e21b90604401610575565b6040516001600160a01b038381166024830152821660448201526000908190819061016790638f8d7f9960e01b90606401610738565b610895610bf1565b6040516001600160a01b0383169082156108fc029083906000818181858888f193505050501580156108cb573d6000803e3d6000fd5b50816001600160a01b0316336001600160a01b031660008051602061152f8339815191526040516109269060208082526016908201527548626172205472616e7366657220436f6d706c65746560501b604082015260600190565b60405180910390a35050565b6040516001600160a01b03838116602483015282166044820152600090819081906101679063af99c63360e01b90606401610738565b604080516060810182526000808252602080830182905282840182905283516001600160a01b038616602480830191909152855180830390910181526044909101855290810180516001600160e01b0316631ac299b760e31b1790529251909283918291610167916109da919061125b565b6000604051808303816000865af19150503d8060008114610a17576040519150601f19603f3d011682016040523d82523d6000602084013e610a1c565b606091505b5091509150610a44604080516060810182526000808252602082018190529181019190915290565b82610a5157601581610a65565b81806020019051810190610a659190611497565b60039190910b97909650945050505050565b604080516001600160a01b038481166024830152831660448083019190915282518083039091018152606490910182526020810180516001600160e01b0316633cb0c7fd60e21b179052905160009182918291829161016791610ad99161125b565b6000604051808303816000865af19150503d8060008114610b16576040519150601f19603f3d011682016040523d82523d6000602084013e610b1b565b606091505b509150915081610b2e5760156000610a65565b80806020019051810190610a659190611502565b610b4a610bf1565b6001600160a01b038116610baf5760405162461bcd60e51b815260206004820152602660248201527f4f776e61626c653a206e6577206f776e657220697320746865207a65726f206160448201526564647265737360d01b606482015260840161042d565b610bb881610c4b565b50565b6040516001600160a01b03838116602483015282166044820152600090819081906101679063248a35ef60e11b90606401610738565b6000546001600160a01b031633146108275760405162461bcd60e51b815260206004820181905260248201527f4f776e61626c653a2063616c6c6572206973206e6f7420746865206f776e6572604482015260640161042d565b600080546001600160a01b038381166001600160a01b0319831681178455604051919092169283917f8be0079c531659141344cd1fd0a4f28419497f9722a3daafe3b4186f6b6457e09190a35050565b6040518060a0016040528060001515815260200160006001600160a01b03168152602001606081526020016060815260200160006001600160a01b031681525090565b6001600160a01b0381168114610bb857600080fd5b8035610cfe81610cde565b919050565b600060208284031215610d1557600080fd5b8135610d2081610cde565b9392505050565b600060208284031215610d3957600080fd5b5035919050565b60008060408385031215610d5357600080fd5b8235610d5e81610cde565b946020939093013593505050565b60005b83811015610d87578181015183820152602001610d6f565b83811115610d96576000848401525b50505050565b60008151808452610db4816020860160208601610d6c565b601f01601f19169290920160200192915050565b8051151582526000602082015160018060a01b0380821660208601526040840151915060a06040860152610dff60a0860183610d9c565b915060608401518583036060870152610e188382610d9c565b925050806080850151166080860152508091505092915050565b8260070b8152604060208201526000610e4e6040830184610dc8565b949350505050565b634e487b7160e01b600052604160045260246000fd5b6040516060810167ffffffffffffffff81118282101715610e8f57610e8f610e56565b60405290565b6040805190810167ffffffffffffffff81118282101715610e8f57610e8f610e56565b60405160a0810167ffffffffffffffff81118282101715610e8f57610e8f610e56565b604051601f8201601f1916810167ffffffffffffffff81118282101715610f0457610f04610e56565b604052919050565b63ffffffff81168114610bb857600080fd5b6000808284036080811215610f3257600080fd5b8335610f3d81610cde565b92506060601f1982011215610f5157600080fd5b50610f5a610e6c565b6020840135610f6881610f0c565b81526040840135610f7881610cde565b60208201526060840135610f8b81610f0c565b6040820152919491935090915050565b8015158114610bb857600080fd5b600067ffffffffffffffff821115610fc357610fc3610e56565b50601f01601f191660200190565b600082601f830112610fe257600080fd5b8135610ff5610ff082610fa9565b610edb565b81815284602083860101111561100a57600080fd5b816020850160208301376000918101602001919091529392505050565b6000806040838503121561103a57600080fd5b6110448335610cde565b8235915067ffffffffffffffff806020850135111561106257600080fd5b6020840135840185601f82011261107857600080fd5b818135111561108957611089610e56565b6110996020823560051b01610edb565b81358082526020808301929160051b840101888111156110b857600080fd5b602084015b818110156111d95785813511156110d357600080fd5b80358501601f196040828d03820112156110ec57600080fd5b6110f4610e95565b60208301358152886040840135111561110c57600080fd5b60408301358301925060a082848f0301121561112757600080fd5b61112f610eb8565b915061113e6020840135610f9b565b602083013582526111526040840135610cde565b60408301356020830152886060840135111561116d57600080fd5b6111808d60206060860135860101610fd1565b6040830152886080840135111561119657600080fd5b6111a98d60206080860135860101610fd1565b60608301526111ba60a08401610cf3565b60808301526020818101929092528652948501949190910190506110bd565b50959890975095505050505050565b600080604083850312156111fb57600080fd5b823561120681610cde565b9150602083013561121681610cde565b809150509250929050565b82815260808101610d206020830184805163ffffffff90811683526020808301516001600160a01b03169084015260409182015116910152565b6000825161126d818460208701610d6c565b9190910192915050565b8051600381900b8114610cfe57600080fd5b60006020828403121561129b57600080fd5b610d2082611277565b8051610cfe81610cde565b600082601f8301126112c057600080fd5b81516112ce610ff082610fa9565b8181528460208386010111156112e357600080fd5b610e4e826020830160208701610d6c565b6000806040838503121561130757600080fd5b61131083611277565b9150602083015167ffffffffffffffff8082111561132d57600080fd5b9084019060a0828703121561134157600080fd5b611349610eb8565b825161135481610f9b565b8152602083015161136481610cde565b602082015260408301518281111561137b57600080fd5b611387888286016112af565b60408301525060608301518281111561139f57600080fd5b6113ab888286016112af565b6060830152506113bd608084016112a4565b60808201528093505050509250929050565b6001600160a01b038316815260808101610d206020830184805163ffffffff90811683526020808301516001600160a01b03169084015260409182015116910152565b6001600160a01b0383168152604060208083018290528351828401819052600092916060600583901b860181019290860190878301865b8281101561148857888603605f1901845281518051875285015185870188905261147588880182610dc8565b9650509284019290840190600101611449565b50939998505050505050505050565b60008082840360808112156114ab57600080fd5b6114b484611277565b92506060601f19820112156114c857600080fd5b506114d1610e6c565b60208401516114df81610f0c565b815260408401516114ef81610cde565b60208201526060840151610f8b81610f0c565b6000806040838503121561151557600080fd5b61151e83611277565b9150602083015161121681610f9b56fe3aedc2dd1e2f3fdabe0cf1a0695ce4f847a4149b00f957e0e6bf32e9e8a70bb3a2646970667358221220eb728949b416540efc653672fc3e1472dd6194abe3e6f1e2420e111e40764b4f64736f6c63430008090033",
  "linkReferences": {},
  "deployedLinkReferences": {}
}